S0120000436861707465725F32302E737265638A
S11300000C9434000C9451000C9451000C94510045
S11300100C9451000C9451000C9451000C94510018
S11300200C9451000C9451000C9451000C94510008
S11300300C9451000C9451000C9451000C945100F8
S11300400C9453000C9451000C9451000C945100E6
S11300500C9451000C9451000C9451000C945100D8
S11300600C9451000C94510011241FBECFEFD8E022
S1130070DEBFCDBF11E0A0E0B1E0E2E6F3E002C0F4
S113008005900D92A035B107D9F721E0A0E5B1E0C4
S113009001C01D92A635B207E1F70E940E010C942F
S11300A0AF010C9400001F920F920FB60F9211240F
S11300B00F931F932F933F934F935F936F937F936C
S11300C08F939F93AF93BF9300915201109153016B
S11300D0209154013091550180915001909151012A
S11300E00F5F1F4F2F4F3F4F489668EE73E00E94FB
S11300F08701AC01CB01770FAA0BBB0B080F191FAB
S11301002A1F3B1F00935201109353012093540163
S1130110309355015093510140935001BF91AF91D9
S11301209F918F917F916F915F914F913F912F910B
S11301301F910F910F900FBE0F901F9018952FB71E
S1130140F8946091520170915301809154019091FF
S113015055012FBF0895229A239A249A259A389AF2
S1130160399A3A9A3B9A529A539A549A559A569A69
S1130170579A209A219A089580FF02C02A9A01C0B2
S11301802A9881FF02C02B9A01C02B9882FF02C0DB
S11301902C9A01C02C9883FF02C02D9A01C02D987F
S11301A084FF02C0409A01C0409885FF02C0419A72
S11301B001C0419886FF02C0429A01C04298882338
S11301C014F4439A089543980895882314F45A9A8A
S11301D001C05A9886FF02C05B9A01C05B9885FFF4
S11301E002C05C9A01C05C9884FF02C05D9A01C0A1
S11301F05D9883FF02C05E9A01C05E9882FF02C0D0
S11302005F9A01C05F9881FF02C0289A01C02898B4
S113021080FF02C0299A089529980895CF93DF9307
S1130220CDB7DEB7C055D1090FB6F894DEBF0FBE07
S1130230CDBF0E94AB0080E5E0E0F1E0DE01119665
S113024001900D928A95E1F785B5826085BDEEE651
S1130250F0E080818160808378940E949F00A12CCB
S1130260B12C812C912CCC24C394D12C02C0A12C70
S1130270B12C0E949F002B013C017401EE0CFF1C69
S1130280EE0CFF1CEE0CFF1C81E090E08C0F9D1F18
S1130290E80EF91E00E010E0C601002E02C0880F2F
S11302A0991F0A94E2F780950E94BC00F70181919E
S11302B07F010E94E5008FE39FE10197F1F700C001
S11302C000000F5F1F4F0830110531F780E090E008
S11302D0DC0184199509A609B709893E9340A10553
S11302E0B10538F2FFEFAF1ABF0A2AE0A216B10433
S11302F009F0BFCF8FEF881A980A9AE08916910403
S113030009F0B5CFA12CB12C812C912CB2CF97FB45
S1130310072E16F4009407D077FD09D00E949B01A4
S113032007FC05D03EF4909581959F4F08957095F4
S113033061957F4F0895AA1BBB1B51E107C0AA1FFB
S1130340BB1FA617B70710F0A61BB70B881F991F72
S11303505A95A9F780959095BC01CD010895F8941C
S1050360FFCFC9
S11303623C4242424242423C1C080808080818081F
S11303727E2010080402423C3C4202021C02423C1F
S11303820404047E4424140C7C0202027C40407E59
S11303923C42427C4040423C402010080402027E1F
S11303A23C4242423C42423C201008043C42423C11
S9030000FC
