:100000000C9434000C9451000C9451000C94510049
:100010000C9451000C9451000C9451000C9451001C
:100020000C9451000C9451000C9451000C9451000C
:100030000C9451000C9451000C9451000C945100FC
:100040000C947F000C9451000C9451000C945100BE
:100050000C9451000C9451000C9451000C945100DC
:100060000C9451000C94510011241FBECFEFD8E026
:10007000DEBFCDBF11E0A0E0B1E0EAE2F4E002C0F3
:1000800005900D92A231B107D9F721E0A2E1B1E0CC
:1000900001C01D92A831B207E1F70E94E9000C945B
:1000A00013020C9400003D9A3C9A80E28093B800C1
:1000B00084E48093BC00089584EE8093BC00ECEB54
:1000C000F0E080818823ECF708958093BB0084ECF6
:1000D0008093BC00ECEBF0E080818823ECF708957E
:1000E00084EC8093BC00ECEBF0E080818823ECF79B
:1000F0008091BB00089584ED8093BC0008951F9209
:100100000F920FB60F9211240F931F932F933F93CB
:100110004F935F936F937F938F939F93AF93BF930F
:1001200000911401109115012091160130911701D1
:1001300080911201909113010F5F1F4F2F4F3F4F7E
:10014000489668EE73E00E94EB01AC01CB01770F9B
:10015000AA0BBB0B080F191F2A1F3B1F009314018A
:10016000109315012093160130931701509313013A
:1001700040931201BF91AF919F918F917F916F91A9
:100180005F914F913F912F911F910F910F900FBE53
:100190000F901F901895982F92959F70990F292F67
:1001A000220F220F920F8F70890F08959DEC899F67
:1001B000912D112496959695969520E1929FA001F8
:1001C0001124990F292F220F220F920F891B842BA4
:1001D0000895CF93DF93CDB7DEB761970FB6F8944C
:1001E000DEBF0FBECDBF85B5826085BDEEE6F0E017
:1001F00080818160808378948FEF8AB98FE084B9A1
:100200008AE0E0E0F1E0DE01119601900D928A951E
:10021000E1F70E94530087E0EAE0F1E0DE011B967F
:1002200001900D928A95E1F70E945C0080ED0E949A
:10023000650080E00E9465008E01055F1F4F7E0112
:1002400022E1E20EF11CF80181918F010E94D6009B
:100250000E9465000E151F05B1F70E947B00FFEF9D
:1002600027EA81E6F15020408040E1F700C000001D
:100270000E945C0080ED0E94650080E00E946500A5
:100280000E947B009FEFE3EDF0E39150E040F040EF
:10029000E1F700C000000E945C0081ED0E94650053
:1002A0000E9470000E9470000E9470000E94700006
:1002B0000E9470000E9470000E9470000E947B00EB
:1002C0000F2EFEE08F2EF02D0F2EFAE0EF2EF12CE8
:1002D000F02D0F2EFDE09F2EF02D0F2EFBE0AF2E08
:1002E000F02D0F2EF7E0BF2EF02D0E945C0080ED68
:1002F0000E94650080E00E9465000E947B000E94D1
:100300005C0080ED0E94650080E00E9465000E9414
:100310007B000E945C0081ED0E9465000E947000DD
:100320000E94CB00082F10E00E9470000E94CB00BA
:10033000C82ED12C0E9470000E9470000E94700094
:100340000E9470000E9470000E947B0085B8C60168
:10035000B7010E94EB01E1E0F0E0EC0FFD1FE60FBA
:10036000F71F20812BB9EFE1FEE43197F1F700C0D0
:10037000000095B8E1E0F0E0EC0FFD1FE80FF91F79
:1003800080818BB98FE19EE40197F1F700C00000F6
:10039000A5B8C801B7010E94EB01E1E0F0E0EC0F65
:1003A000FD1FE60FF71F20812BB9EFE1FEE4319727
:1003B000F1F700C00000B5B8E1E0F0E0EC0FFD1F80
:1003C000E80FF91F80818BB98FE19EE40197F1F767
:1003D00000C000008ACF97FB072E16F4009407D0C8
:1003E00077FD09D00E94FF0107FC05D03EF49095EF
:1003F00081959F4F0895709561957F4F0895AA1B31
:10040000BB1B51E107C0AA1FBB1FA617B70710F0FF
:10041000A61BB70B881F991F5A95A9F78095909531
:0A042000BC01CD010895F894FFCF50
:10042A00FC60DAF266B6BEE4FEE60A000C020109D6
:02043A000E00B2
:00000001FF
