:100000000C9434000C943E000C943E000C943E0082
:100010000C943E000C943E000C943E000C943E0068
:100020000C943E000C943E000C943E000C943E0058
:100030000C943E000C943E000C943E000C943E0048
:100040000C943E000C943E000C943E000C943E0038
:100050000C943E000C943E000C943E000C943E0028
:100060000C943E000C943E0011241FBECFEFD8E04C
:10007000DEBFCDBF0E9463000C946A000C940000A8
:10008000E0ECF0E08081826080831092C5008FEC0C
:100090008093C400E1ECF0E0808180618083808106
:1000A000886080830895E0ECF0E080818823ECF79D
:1000B0008091C6000895E0ECF0E0908195FFFDCFBF
:1000C0008093C60008950E9440000E9453000E9441
:0800D0005B00FBCFF894FFCFA9
:00000001FF
