S0120000436861707465725F31362E7372656385
S11300000C9434000C943E000C943E000C943E007E
S11300100C943E000C943E000C943E000C943E0064
S11300200C943E000C943E000C943E000C943E0054
S11300300C943E000C943E000C943E000C943E0044
S11300400C943E000C943E000C943E000C943E0034
S11300500C943E000C943E000C943E000C943E0024
S11300600C943E000C943E0011241FBECFEFD8E048
S1130070DEBFCDBF0E9489000C9413010C940000D4
S1130080229A2A9A239A2498259A8CB580618CBD49
S11300908CB580648CBD08958EBD0DB407FEFDCF74
S11300A00895CF93C82F2A9883E00E944C008C2F88
S11300B00E944C0080E00E944C002A9A8EB5CF9199
S11300C008952A9886E00E944C002A9A08952A9856
S11300D085E00E944C0080E00E944C002A9A8EB574
S11300E00895CF93DF93D82FC62F0E9461002A98DA
S11300F082E00E944C008D2F0E944C008C2F0E94A5
S11301004C002A9A0E94670080FDFCCFDF91CF91BA
S113011008950E9440000E94A200C0E06C2F8C2F22
S11301200E947100CF5FC038C9F7C0E08C2F0E94D5
S113013051000E94C2008AE00E94BA00CF5FC0381A
S1130140A9F7FFCFE0ECF0E0808182608083109219
S1130150C5008FEC8093C400E2ECF0E080818660FF
S11301608083E1ECF0E0808180618083808188601D
S113017080830895E0ECF0E0908195FFFDCF8093BB
S1130180C6000895EF92FF920F931F93CF93DF93CE
S113019000D000D0CDB7DEB720E330E03A83298326
S11301A01C821B82882319F1FE01319600E010E0C5
S11301B04DEC01C08901849F912D1124969596954B
S11301C09695392F330F232F220F220F230F821BD3
S11301D0805D8193892F98012F5F3F4F9111EACF62
S11301E0FE01E20FF31F118211231CF411C000E081
S11301F010E0CE01800F911F9C012E5F3F4F7901CB
S1130200F70182917F010E94BA0001501109C2F7DF
S11302100F900F900F900F90DF91CF911F910F913E
S10D0220FF90EF900895F894FFCFCB
S9030000FC
