:100000000C9434000C9449000C9449000C94490061
:100010000C9449000C9449000C9449000C9449003C
:100020000C9449000C9449000C9449000C9449002C
:100030000C9449000C9449000C9449000C9449001C
:100040000C9449000C9449000C9449000C9449000C
:100050000C9449000C9449000C9449000C944900FC
:100060000C9449000C94490011241FBECFEFD8E036
:10007000DEBFCDBF11E0A0E0B1E0EAE2F4E002C0F3
:1000800005900D92AA38B107D9F70E94A8000C94E8
:1000900013020C9400003D9A3C9A80E28093B800D1
:1000A00084E48093BC00089584EE8093BC00ECEB64
:1000B000F0E080818823ECF708958093BB0084EC06
:1000C0008093BC00ECEBF0E080818823ECF708958E
:1000D00084EC8093BC00ECEBF0E080818823ECF7AB
:1000E0008091BB00089584ED8093BC000895982F03
:1000F00092959F70990F292F220F220F920F8F70C8
:10010000890F08959DEC899F912D112496959695C0
:10011000969520E1929FA0011124990F292F220F7B
:10012000220F920F891B842B08951F93CF93DF9387
:10013000182FEB0187E091E00E94B301812F0E940C
:10014000C201CE010E94B301DF91CF911F910895AA
:10015000CF93DF93CDB7DEB727970FB6F894DEBF06
:100160000FBECDBF0E944B000E94930187E0E0E0EC
:10017000F1E0DE01119601900D928A95E1F70E945F
:10018000540080ED0E945D0080E00E945D0089E0E7
:1001900091E00E94B301CE0101967C0110E087E05E
:1001A00091E00E94B301812F0E94C20182E291E09E
:1001B0000E94B301F70181917F010E9482000E9499
:1001C0005D001F5F173059F70E947300FFEF27EAA9
:1001D00081E6F15020408040E1F700C000000E941D
:1001E000540080ED0E945D0080E00E945D000E944E
:1001F00073000E94540081ED0E945D0084E391E051
:100200000E94B3010E9468000E9477006EE471E0D2
:100210000E9495000E9468000E94770067E571E0E7
:100220000E9495000E9468000E94770060E671E0DD
:100230000E9495000E9468000E94770067E671E0C6
:100240000E9495000E9468000E94770065E771E0B7
:100250000E9495000E9468000E9477006BE771E0A1
:100260000E9495000E9468000E94770063E871E098
:100270000E9495000E9473009FEFE7EAF1E691501B
:10028000E040F040E1F700C000000E94540080ED23
:100290000E945D0080E00E945D000E9473000E9449
:1002A000540081ED0E945D0084E391E00E94B3015F
:1002B0000E9468000E9477006EE471E00E94950041
:1002C0000E9468000E94770067E571E00E94950037
:1002D0000E9468000E94770060E671E00E9495002D
:1002E0000E9468000E94770067E671E00E94950016
:1002F0000E9468000E94770065E771E00E94950007
:100300000E9468000E9477006BE771E00E949500F0
:100310000E9468000E94770063E871E00E949500E7
:100320000E947300A9CFE0ECF0E0808182608083BE
:100330001092C5008FEC8093C400E2ECF0E0808165
:1003400086608083E1ECF0E0808180618083808141
:10035000886080830895E0ECF0E0908195FFFDCF08
:100360008093C6000895CF93DF93EC0188818823A2
:1003700031F021960E94AB0189918111FBCFDF9171
:10038000CF910895EF92FF920F931F93CF93DF9336
:1003900000D000D0CDB7DEB720E330E03A83298328
:1003A0001C821B82882319F1FE01319600E010E0C7
:1003B0004DEC01C08901849F912D1124969596954D
:1003C0009695392F330F232F220F220F230F821BD5
:1003D000805D8193892F98012F5F3F4F9111EACF64
:1003E000FE01E20FF31F118211231CF411C000E083
:1003F00010E0CE01800F911F9C012E5F3F4F7901CD
:10040000F70182917F010E94AB0101501109C2F7EF
:100410000F900F900F900F90DF91CF911F910F9140
:0A042000FF90EF900895F894FFCFCD
:10042A0038220C0201090E20002A205365747469CF
:10043A006E6720525443206D6F64756C652E2E2EA4
:10044A000A00746820627974652077726974652E6F
:10045A002E2E0A002A2054696D652F446174652086
:10046A0052657472696576616C2E2E2E0A002073AD
:10047A0065636F6E640A00206D696E7574650A00A3
:10048A0020686F75720A0020646179206F66207790
:10049A0065656B0A00206461790A00206D6F6E74CD
:0A04AA00680A0020796561720A00FB
:00000001FF
