:100000000C9434000C9449000C9449000C94490061
:100010000C9449000C9449000C9449000C9449003C
:100020000C9449000C9449000C9449000C9449002C
:100030000C9449000C9449000C9449000C9449001C
:100040000C9449000C9449000C9449000C9449000C
:100050000C9449000C9449000C9449000C944900FC
:100060000C9449000C94490011241FBECFEFD8E036
:10007000DEBFCDBF11E0A0E0B1E0EEE9F1E002C0EB
:1000800005900D92A83CB107D9F70E946B000C9423
:10009000CD000C94000084B1886384B908952D9A32
:1000A0002D9808952C9A2C9808950F931F93CF9311
:1000B0008C01C0E1112314F42B9A01C02B980E94EB
:1000C0004F00000F111FC150A9F70E945200CF919D
:1000D0001F910F910895CF93DF93CDB7DEB7C85C22
:1000E000D1090FB6F894DEBF0FBECDBF88ECE0E0BB
:1000F000F1E0DE01119601900D928A95E1F70E94E0
:100100004B0010E00F2EF4E6EF2EF12CF02D212FF6
:1001100030E0C9010196B7010E94A500182F220FF7
:10012000331FE1E0F0E0EC0FFD1FE20FF31F8081D1
:1001300091810E9455002FEF83ED90E32150804084
:100140009040E1F700C00000E2CF97FB072E16F4C5
:10015000009407D077FD09D00E94B90007FC05D0B4
:100160003EF4909581959F4F0895709561957F4FCE
:100170000895AA1BBB1B51E107C0AA1FBB1FA617EE
:10018000B70710F0A61BB70B881F991F5A95A9F740
:0E01900080959095BC01CD010895F894FFCFA5
:10019E00FCFCFC60FCDAFCF2FC66FCB6FCBEFCE48B
:1001AE00FCFEFCE660FC606060DA60F2606660B6E1
:1001BE0060BE60E460FE60E6DAFCDA60DADADAF29B
:1001CE00DA66DAB6DABEDAE4DAFEDAE6F2FCF26023
:1001DE00F2DAF2F2F266F2B6F2BEF2E4F2FEF2E613
:1001EE0066FC666066DA66F2666666B666BE66E4EB
:1001FE0066FE66E6B6FCB660B6DAB6F2B666B6B6B9
:10020E00B6BEB6E4B6FEB6E6BEFCBE60BEDABEF262
:10021E00BE66BEB6BEBEBEE4BEFEBEE6E4FCE46096
:10022E00E4DAE4F2E466E4B6E4BEE4E4E4FEE4E632
:10023E00FEFCFC60FEDAFEF2FE66FEB6FEBEFEE4DC
:10024E00FEEFFEE6E6FCE660E6DAE6F2E666E6B627
:08025E00E6BEE6E4E6FEE6E67A
:00000001FF
