S0120000436861707465725F31322E7372656389
S11300000C9434000C943E000C943E000C943E007E
S11300100C943E000C943E000C943E000C943E0064
S11300200C943E000C943E000C943E000C943E0054
S11300300C943E000C943E000C943E000C943E0044
S11300400C943E000C943E000C943E000C943E0034
S11300500C943E000C943E000C943E000C943E0024
S11300600C943E000C943E0011241FBECFEFD8E048
S1130070DEBFCDBF0E9466000C948A000C94000081
S1130080ACE7B0E09C9190649C93EAE7F0E0908147
S11300909760908390819068908390819062908320
S11300A09C91907E892B8C938081806480830895B9
S11300B0EAE7F0E0808184FFFDCF809178009091A1
S11300C0790008958FEF8AB91BB8089580E00E94E3
S11300D040000E946200C1E0D0E00E945800BC01D0
S11300E0660F672F661F770B77238CF020E030E0D4
S11300F090E0AE01022E02C0440F551F0A94E2F7AD
S1130100942B2F5F3F4F621773079CF701C090E059
S10B01109BB9E3CFF894FFCF83
S9030000FC
